{
  "address": "0xbFF9A69c7C9054FDE366ea3A2809Fd047dF0047D",
  "abi": [
    {
      "inputs": [],
      "name": "function1",
      "outputs": [],
      "stateMutability": "nonpayable",
      "type": "function"
    },
    {
      "inputs": [],
      "name": "function1v10",
      "outputs": [],
      "stateMutability": "nonpayable",
      "type": "function"
    },
    {
      "inputs": [],
      "name": "function1v11",
      "outputs": [],
      "stateMutability": "nonpayable",
      "type": "function"
    },
    {
      "inputs": [],
      "name": "function1v12",
      "outputs": [],
      "stateMutability": "nonpayable",
      "type": "function"
    },
    {
      "inputs": [],
      "name": "function1v13",
      "outputs": [],
      "stateMutability": "nonpayable",
      "type": "function"
    },
    {
      "inputs": [],
      "name": "function1v14",
      "outputs": [],
      "stateMutability": "nonpayable",
      "type": "function"
    },
    {
      "inputs": [],
      "name": "function1v15",
      "outputs": [],
      "stateMutability": "nonpayable",
      "type": "function"
    },
    {
      "inputs": [],
      "name": "function1v16",
      "outputs": [],
      "stateMutability": "nonpayable",
      "type": "function"
    },
    {
      "inputs": [],
      "name": "function1v17",
      "outputs": [],
      "stateMutability": "nonpayable",
      "type": "function"
    },
    {
      "inputs": [],
      "name": "function1v18",
      "outputs": [],
      "stateMutability": "nonpayable",
      "type": "function"
    },
    {
      "inputs": [],
      "name": "function1v19",
      "outputs": [],
      "stateMutability": "nonpayable",
      "type": "function"
    },
    {
      "inputs": [
        {
          "internalType": "address",
          "name": "address_",
          "type": "address"
        }
      ],
      "name": "function1v2",
      "outputs": [],
      "stateMutability": "nonpayable",
      "type": "function"
    }
  ],
  "transactionHash": "0x1f48eb1d7d772a5c7b2e4278f9ff29b4e043c8b1cbb2d5af8ea5a3ab48395deb",
  "args": [],
  "numDeployments": 1,
  "solcInputHash": "31613a1671877decde5b00cfc395ba3d",
  "bytecode": "0x60808060405234610016576109ff908161001c8239f35b600080fdfe6080604052600436101561001257600080fd5b6000803560e01c806329a71964146101e657806331917532146101cb57806336cc1222146101b05780633f3952471461019557806370f636921461017a57806374fa33691461015f5780638ada74c114610144578063b90d2deb14610129578063bd89ce9f146100f7578063c3ee4297146100dc578063ccd9383c146100c15763e02dbb26146100a157600080fd5b346100be57806003193601126100be576100bb6011610255565b80f35b80fd5b50346100be57806003193601126100be576100bb6010610255565b50346100be57806003193601126100be576100bb6013610255565b50346100be5760203660031901126100be576004356001600160a01b0381168103610125576100bb90610255565b5080fd5b50346100be57806003193601126100be576100bb600d610255565b50346100be57806003193601126100be576100bb600f610255565b50346100be57806003193601126100be576100bb600b610255565b50346100be57806003193601126100be576100bb6012610255565b50346100be57806003193601126100be576100bb600c610255565b50346100be57806003193601126100be576100bb600e610255565b50346100be57806003193601126100be576100bb600a610255565b50346100be57806003193601126100be576100bb33610255565b90601f8019910116810190811067ffffffffffffffff82111761022257604052565b634e487b7160e01b600052604160045260246000fd5b90816020910312610250575180151581036102505790565b600080fd5b60018060a01b036000908082541691604091818351958263a9059cbb60e01b91828952169560049387858a0152683635c9adc5dea000009089602493838583015260209b8c91816044998a925af18015610707576109ac575b50868a82825416878c8c5194859384928b84528d840152888a8401525af180156107075761098f575b50868a82825416878c8c5194859384928b84528d840152888a8401525af1801561070757610972575b50868a82825416878c8c5194859384928b84528d840152888a8401525af1801561070757610955575b50868a82825416878c8c5194859384928b84528d840152888a8401525af1801561070757610938575b50868a82825416878c8c5194859384928b84528d840152888a8401525af180156107075761091b575b50868a82825416878c8c5194859384928b84528d840152888a8401525af18015610707576108fe575b50868a82825416878c8c5194859384928b84528d840152888a8401525af18015610707576108e1575b50868a82825416878c8c5194859384928b84528d840152888a8401525af18015610707576108c4575b50868a82825416878c8c5194859384928b84528d840152888a8401525af18015610707576108a7575b50868a82825416878c8c5194859384928b84528d840152888a8401525af180156107075761088a575b50868a82825416878c8c5194859384928b84528d840152888a8401525af180156107075761086d575b50868a82825416878c8c5194859384928b84528d840152888a8401525af1801561070757610850575b50868a82825416878c8c5194859384928b84528d840152888a8401525af1801561070757610833575b50868a82825416878c8c5194859384928b84528d840152888a8401525af1801561070757610816575b50868a82825416878c8c5194859384928b84528d840152888a8401525af18015610707576107f9575b50868a82825416878c8c5194859384928b84528d840152888a8401525af18015610707576107dc575b50868a82825416878c8c5194859384928b84528d840152888a8401525af18015610707576107bf575b50868a82825416878c8c5194859384928b84528d840152888a8401525af18015610707576107a2575b50868a82825416878c8c5194859384928b84528d840152888a8401525af1801561070757610785575b50868a82825416878c8c5194859384928b84528d840152888a8401525af1801561070757610768575b50868a82825416878c8c5194859384928b84528d840152888a8401525af180156107075761074b575b50868a82825416878c8c5194859384928b84528d840152888a8401525af180156107075761072e575b50868a82825416878c8c5194859384928b84528d840152888a8401525af1801561070757610711575b50868a82825416878c8c5194859384928b84528d840152888a8401525af1801561070757918893918c98979695936106ea575b508354169189519a8b97889687528601528401525af19182156106e05750506106b7575050565b816106d692903d106106d9575b6106ce8183610200565b810190610238565b50565b503d6106c4565b51903d90823e3d90fd5b61070090893d8b116106d9576106ce8183610200565b5038610690565b89513d8a823e3d90fd5b610727908b3d8d116106d9576106ce8183610200565b503861065d565b610744908b3d8d116106d9576106ce8183610200565b5038610634565b610761908b3d8d116106d9576106ce8183610200565b503861060b565b61077e908b3d8d116106d9576106ce8183610200565b50386105e2565b61079b908b3d8d116106d9576106ce8183610200565b50386105b9565b6107b8908b3d8d116106d9576106ce8183610200565b5038610590565b6107d5908b3d8d116106d9576106ce8183610200565b5038610567565b6107f2908b3d8d116106d9576106ce8183610200565b503861053e565b61080f908b3d8d116106d9576106ce8183610200565b5038610515565b61082c908b3d8d116106d9576106ce8183610200565b50386104ec565b610849908b3d8d116106d9576106ce8183610200565b50386104c3565b610866908b3d8d116106d9576106ce8183610200565b503861049a565b610883908b3d8d116106d9576106ce8183610200565b5038610471565b6108a0908b3d8d116106d9576106ce8183610200565b5038610448565b6108bd908b3d8d116106d9576106ce8183610200565b503861041f565b6108da908b3d8d116106d9576106ce8183610200565b50386103f6565b6108f7908b3d8d116106d9576106ce8183610200565b50386103cd565b610914908b3d8d116106d9576106ce8183610200565b50386103a4565b610931908b3d8d116106d9576106ce8183610200565b503861037b565b61094e908b3d8d116106d9576106ce8183610200565b5038610352565b61096b908b3d8d116106d9576106ce8183610200565b5038610329565b610988908b3d8d116106d9576106ce8183610200565b5038610300565b6109a5908b3d8d116106d9576106ce8183610200565b50386102d7565b6109c2908b3d8d116106d9576106ce8183610200565b50386102ae56fea26469706673582212201e9f6b8cce34b268b42a18137ebc1700f8d2ae76126b3b19b06e615070c0721564736f6c63430008140033",
  "devdoc": {
    "kind": "dev",
    "methods": {},
    "version": 1
  },
  "userdoc": {
    "kind": "user",
    "methods": {},
    "version": 1
  },
  "storageLayout": {
    "storage": [
      {
        "astId": 754,
        "contract": "contracts/Test2.sol:Test2",
        "label": "token1",
        "offset": 0,
        "slot": "0",
        "type": "t_contract(ERC20)586"
      }
    ],
    "types": {
      "t_contract(ERC20)586": {
        "encoding": "inplace",
        "label": "contract ERC20",
        "numberOfBytes": "20"
      }
    }
  }
}